:1000000052C0000075C0000073C0000071C0000045
:100010006FC000006DC000006BC0000069C0000030
:1000200067C0000065C0000063C0000061C0000040
:100030005FC000007AC100005BC0000059C0000032
:1000400034C2000055C0000036C4000066C4000081
:100050004FC000004DC000004BC0000049C0000070
:1000600047C0000045C00000010204081020408085
:1000700001020408102001020408102004040404F2
:100080000404040402020202020203030303030342
:1000900000000000250028002B00000000002400C4
:1000A00027002A00B20411241FBECFEFD8E0DEBF24
:1000B000CDBF11E0A0E0B1E0ECE6FAE002C00590AF
:1000C0000D92AA31B107D9F721E0AAE1B1E001C050
:1000D0001D92AC3DB207E1F710E0C3E5D0E003C0EC
:1000E0002197FE01BBD4C235D107D1F780D1BCC462
:1000F00087CFCF93DF93882341F0EB0181505AD211
:1001000099838883DF91CF910895FB01118210823A
:10011000F9CF0F931F938B019C0183E036952795B0
:10012000179507958A95D1F7065E1E4F462F4770A3
:1001300021E030E0F90102C0EE0FFF1F4A95E2F71F
:10014000AF01F80120812423CB010196211102C0C7
:1001500090E080E01F910F9108950F931F938B0102
:100160009C0183E036952795179507958A95D1F7D9
:10017000677081E090E001C0880F6A95EAF7F801A6
:10018000E65EFE4F2081452B31F4809582238083EB
:100190001F910F910895822BFACFCF92DF92EF92A9
:1001A000FF92CF93DF936B017C0160E08EE0C81675
:1001B000D104E104F10488F48EE08C0D16D2E6013E
:1001C0002196AE01C701B601C8DFCE01DF91CF9104
:1001D000FF90EF90DF90CF9008958C2DEFCF882384
:1001E00041F08150682F70E090E080E050E040E006
:1001F000B4CF0895CF92DF92EF92FF92CF93DF9327
:1002000000D0CDB7DEB7C0900001D0900101E090E2
:100210000201F0900301A70196016091D401709151
:10022000D5018091D6019091D70117D1882341F053
:10023000C092D401D092D501E092D601F092D701BC
:100240006EE070E080E090E064DF9093D3018093F3
:10025000D20143E050E0BE016F5F7F4F4ADF0F9055
:100260000F90DF91CF91FF90EF90DF90CF900895A6
:10027000CF93DF931092D9011092D801E0EDF1E015
:1002800084E0DF011D928A95E9F7CCECD1E0188279
:100290008091000190910101A0910201B0910301B0
:1002A00088879987AA87BB8781E090E0A0E0B0E0CB
:1002B00089839A83AB83BC836EE070E080E090E03A
:1002C0006CDF9F838E8381E08D83DF91CF910895D2
:1002D0008091CC0181111DC081E08093CC0180917F
:1002E000CD019091CE01A091CF01B091D0010197A5
:1002F000A105B10571F48091D101882351F06EE020
:1003000070E080E090E005DF9093D3018093D2010C
:1003100066CF089540E855E260E070E090E080E04C
:1003200000C026E08FE291E066C21F920F920FB6E6
:100330000F9211242F933F934F935F936F937F936B
:100340008F939F93AF93BF93EF93FF938BEC93EFB8
:10035000909385008093840032D0FF91EF91BF91FC
:10036000AF919F918F917F916F915F914F913F914D
:100370002F910F900FBE0F901F9018958BEC93EF5D
:100380009093850080938400AFE6B0E08C918E7FDF
:100390008C93E0E8F0E080818C7F8083E1E8F0E0FE
:1003A0008081877E808380818560808380818D7F4E
:1003B00080838C9181608C93089581E00895809171
:1003C000230191E0980F90932301882349F021E0C5
:1003D00030E0309325012093240180932301089578
:1003E000789408DFF894809123018150F6CFCF9361
:1003F000DF931092DB011092DA01A1D08BDFC09164
:100400000501D09106011982188232DFB7DF81E041
:1004100028813981232B09F080E08093DA017894D8
:1004200078948091DA01811107C052DFF89490E04E
:1004300080E0DF91CF91089581E028813981232BDD
:1004400009F480E08093DB019091DB0181E0911160
:1004500080E08093DA01B1DFE4CF03D008F481E0DB
:100460000895990F0008550FAA0BE0E8FEEF161645
:100470001706E807F907C0F012161306E407F50798
:1004800098F0621B730B840B950B39F40A2661F00C
:10049000232B242B252B21F408950A2609F4A140AF
:1004A000A6958FEF811D811D08951F920F920FB6A3
:1004B0000F9211242F933F938F939F93AF93BF93EA
:1004C0008091270190912801A0912901B0912A01E2
:1004D0003091260123E0230F2D3758F50196A11DF9
:1004E000B11D209326018093270190932801A093AA
:1004F0002901B0932A0180912B0190912C01A091A8
:100500002D01B0912E010196A11DB11D80932B01EB
:1005100090932C01A0932D01B0932E01BF91AF9128
:100520009F918F913F912F910F900FBE0F901F9031
:10053000189526E8230F0296A11DB11DD2CF7894FD
:1005400084B5826084BD84B5816084BD85B58260D8
:1005500085BD85B5816085BDEEE6F0E08081816076
:100560008083E1E8F0E01082808182608083808176
:1005700081608083E0E8F0E0808181608083E1EB4E
:10058000F0E0808184608083E0EBF0E08081816036
:100590008083EAE7F0E080818460808380818260EC
:1005A00080838081816080838081806880831092D5
:1005B000C10008958E3008F08E502091040190E41F
:1005C000299F900111248770822B80937C00809159
:1005D0007A00806480937A0080917A0086FDFCCF57
:1005E00080917800909179000895CF93DF9390E007
:1005F000FC01E859FF4F249184589F4FFC018491DE
:100600008823C9F090E0880F991FFC01E656FF4F40
:10061000A591B491FC01E057FF4FC591D4916111B0
:100620000DC09FB7F8948C91209582238C9388817C
:10063000282328839FBFDF91CF910895623051F422
:100640009FB7F8943C91822F809583238C93E88107
:100650002E2BEFCF8FB7F894EC912E2B2C938FBFCE
:10066000EACFFC01918D228D892F90E0805C9F4F15
:10067000821B91098F7399270895FC01918D828DBA
:10068000981731F0828DE80FF11D858D90E0089567
:100690008FEF9FEF0895FC01918D828D981761F087
:1006A000A28DAE0FBF2FB11D5D968C91928D9F5F75
:1006B0009F73928F90E008958FEF9FEF0895FC0154
:1006C000538D448D252F30E0842F90E0821B930BB7
:1006D000541710F0CF96089501970895FC01A48D4A
:1006E000A80FB92FB11DA35ABF4F2C91848D90E054
:1006F00001968F739927848FA689B7892C93A08937
:10070000B1898C91837080648C93938D848D9813C0
:1007100006C00288F389E02D80818F7D8083089553
:10072000CF93DF93EC01888D8823B1F0AA89BB8930
:10073000E889F9898C9185FD03C0808186FD0CC014
:100740000FB607FCF7CF8C9185FFF2CF808185FF34
:10075000EDCFCE01C3DFEACFDF91CF910895EF92C5
:10076000FF920F931F93CF93DF93EC0181E0888F6B
:100770009B8D8C8D98131AC0E889F989808185FF3B
:1007800015C09FB7F894EE89FF896083E889F989DD
:1007900080818370806480839FBF81E090E0DF91DF
:1007A000CF911F910F91FF90EF900895F62E0B8D32
:1007B00010E00F5F1F4F0F731127E02E8C8D8E11ED
:1007C0000BC00FB607FCFACFE889F989808185FF55
:1007D000F5CFCE0183DFF2CFEB8DEC0FFD2FF11DB6
:1007E000E35AFF4FF0829FB7F8940B8FEA89FB8999
:1007F00080818062D0CFCF92DF92EF92FF921F93E1
:10080000CF93DF93EC016A017B01122FE889F9890C
:1008100082E08083C11481EED806E104F10499F0EE
:1008200060E079E08DE390E0A7019601F5D02150DA
:100830003109410951095695479537952795211555
:1008400080E1380790F0E889F989108260E874E85F
:100850008EE190E0A7019601DFD0215031094109D6
:1008600051095695479537952795EC85FD85308339
:10087000EE85FF852083188EEC89FD891083EA8937
:10088000FB89808180618083EA89FB89808188601F
:100890008083EA89FB89808180688083EA89FB897B
:1008A00080818F7D8083DF91CF911F91FF90EF90AA
:1008B000DF90CF9008951F920F920FB60F921124E0
:1008C0002F938F939F93EF93FF93E0913F01F091CC
:1008D00040018081E0914501F091460182FD1BC0FD
:1008E0009081809148018F5F8F7320914901821719
:1008F00041F0E0914801F0E0E15DFE4F958F80937B
:100900004801FF91EF919F918F912F910F900FBE12
:100910000F901F9018958081F4CF1F920F920FB601
:100920000F9211242F933F934F935F936F937F9375
:100930008F939F93AF93BF93EF93FF938FE291E0D9
:10094000CDDEFF91EF91BF91AF919F918F917F91FC
:100950006F915F914F913F912F910F900FBE0F902C
:100960001F901895EFE2F1E01382128288EE93E077
:10097000A0E0B0E084839583A683B7838BE091E009
:100980009183808385EC90E09587848784EC90E068
:100990009787868780EC90E0918B808B81EC90E04C
:1009A000938B828B82EC90E0958B848B86EC90E02D
:1009B000978B868B118E128E138E148E0895AF92A4
:1009C000BF92CF92DF92EF92FF920F931F93CF933C
:1009D000DF936C017B018B01040F151FEB015E019E
:1009E000AE18BF08C017D10759F06991D601ED9133
:1009F000FC910190F081E02DC6010995892B79F7D2
:100A0000C501DF91CF911F910F91FF90EF90DF9083
:100A1000CF90BF90AF900895A1E21A2EAA1BBB1BE6
:100A2000FD010DC0AA1FBB1FEE1FFF1FA217B307BA
:100A3000E407F50720F0A21BB30BE40BF50B661FD0
:100A4000771F881F991F1A9469F760957095809594
:100A500090959B01AC01BD01CF010895EE0FFF1FE2
:0C0A60000590F491E02D0994F894FFCF6C
:100A6C00000080BF01D80100000000AF03DF045F6D
:0A0A7C0003900331034B033D030018
:00000001FF
