:100000005CC000007FC000007DC000007BC000001D
:1000100079C0000077C0000075C0000073C0000008
:1000200071C000006FC000006DC000006BC0000018
:1000300069C00000CCC1000065C0000063C00000C2
:10004000C0C200005FC0000018C5000048C5000025
:1000500059C0000057C0000055C0000053C0000048
:1000600051C000004FC00000000000080002010065
:100070000003040700000000000000000102040863
:100080001020408001020408102001020408102002
:10009000040404040404040402020202020203032E
:1000A0000303030300000000250028002B000000CC
:1000B0000000240027002A00940511241FBECFEF62
:1000C000D8E0DEBFCDBF11E0A0E0B1E0E0E3FCE0AE
:1000D00002C005900D92AA31B107D9F721E0AAE13B
:1000E000B1E001C01D92AB3EB207E1F710E0CDE5F3
:1000F000D0E003C02197FE0193D5CC35D107D1F7CD
:1001000002D294C57DCFCF93DF93882341F0EB01DA
:100110008150DCD299838883DF91CF910895FB01D0
:1001200011821082F9CF0F931F938B019C0183E002
:1001300036952795179507958A95D1F7065E1E4F38
:10014000462F477021E030E0F90102C0EE0FFF1F9B
:100150004A95E2F7AF01F80120812423CB010196F3
:10016000211102C090E080E01F910F9108950F933C
:100170001F938B019C0183E0369527951795079572
:100180008A95D1F7677081E090E001C0880F6A9589
:10019000EAF7F801E65EFE4F2081452B31F48095A9
:1001A000822380831F910F910895822BFACFCF92E3
:1001B000DF92EF92FF92CF93DF936B017C0160E0BF
:1001C0008EE0C816D104E104F10488F48EE08C0DB1
:1001D000C1D2E6012196AE01C701B601C8DFCE014A
:1001E000DF91CF91FF90EF90DF90CF9008958C2D0D
:1001F000EFCF882341F08150682F70E090E080E0DD
:1002000050E040E0B4CF0895611101C0A3C2613055
:10021000E9F362E0FBCF662311F061E0D7C260E052
:10022000FDCFFC0191E02091E7013091E801232B03
:1002300009F090E0918308958091E7019091E801A1
:100240000196883522E0920738F49093E801809374
:10025000E70160E08DE0DFCF1092E8011092E70146
:10026000F8CFCF92DF92EF92FF92CF93DF9300D03F
:10027000CDB7DEB7C0900001D0900101E09002013F
:10028000F0900301A70196016091D7017091D80108
:100290008091D9019091DA016CD1882341F0C0920C
:1002A000D701D092D801E092D901F092DA016EE044
:1002B00070E080E090E037DF9093D6018093D50125
:1002C00043E050E0BE016F5F7F4F1DDF0F900F9046
:1002D000DF91CF91FF90EF90DF90CF900895CF9274
:1002E000DF92EF92FF921F93CF93DF93E3EEF1E063
:1002F00086E0DF011D928A95E9F7CFECD1E084E139
:10030000FE0111928A95E9F7C12CD12C7601C39494
:10031000CD86DE86EF86F88A61E08DE075DF11E03C
:10032000198B18828091000190910101A091020126
:10033000B091030188879987AA87BB871D82C982EC
:10034000DA82EB82FC826EE070E080E090E02FDFEA
:100350009F838E831D83DF91CF911F91FF90EF903C
:10036000DF90CF9008958091DB01811103C081E07F
:100370008093DB018091CF0181111DC081E08093CA
:10038000CF018091D0019091D101A091D201B09183
:10039000D3010197A105B10571F48091D40188239F
:1003A00051F06EE070E080E090E0BDDE9093D60109
:1003B0008093D5011ECF089540E855E260E070E0DB
:1003C00090E080E000C026E082E391E0F6C21F9258
:1003D0000F920FB60F9211242F933F934F935F9379
:1003E0006F937F938F939F93AF93BF93EF93FF93FD
:1003F00086E997EE909385008093840032D0FF9138
:10040000EF91BF91AF919F918F917F916F915F918C
:100410004F913F912F910F900FBE0F901F90189505
:1004200086E997EE9093850080938400AFE6B0E074
:100430008C918E7F8C93E0E8F0E080818C7F8083CC
:10044000E1E8F0E08081877E808380818460808322
:1004500080818C7F80838C9181608C93089581E072
:100460000895CF93DF9300D0CDB7DEB780912501FB
:1004700091E0980F90932501882369F021E030E006
:100480003093280120932701809325010F900F902E
:10049000DF91CF910895CE010196C3DE7894CCDE32
:1004A000F894809125018150809325018A818823C9
:1004B00089F08091240191E0980F90932401882382
:1004C00049F021E030E03093280120932701809308
:1004D0002401DCCF809124018823C1F28091260180
:1004E0008111D4CF81E0809326017894BADEF8940C
:1004F00080912401815080932401809126018150B4
:1005000080932601C3CFCF93DF931092EA0110921C
:10051000E901A1D051DFC0910501D09106011982F6
:100520001882DDDE7DDF81E028813981232B09F00F
:1005300080E08093E901789478948091E9018111B9
:1005400007C011DFF89490E080E0DF91CF9108952B
:1005500081E028813981232B09F480E08093EA012E
:100560009091EA0181E0911180E08093E90177DFC9
:10057000E4CF03D008F481E00895990F0008550FE7
:10058000AA0BE0E8FEEF16161706E807F907C0F019
:1005900012161306E407F50798F0621B730B840B21
:1005A000950B39F40A2661F0232B242B252B21F4FB
:1005B00008950A2609F4A140A6958FEF811D811D9B
:1005C00008951F920F920FB60F9211242F933F930D
:1005D0008F939F93AF93BF9380912A0190912B01AA
:1005E000A0912C01B0912D013091290123E0230F1E
:1005F0002D3758F50196A11DB11D20932901809337
:100600002A0190932B01A0932C01B0932D0180918E
:100610002E0190912F01A0913001B09131010196EE
:10062000A11DB11D80932E0190932F01A093300145
:10063000B0933101BF91AF919F918F913F912F91D5
:100640000F900FBE0F901F90189526E8230F02966B
:10065000A11DB11DD2CF789484B5826084BD84B5CC
:10066000816084BD85B5826085BD85B5816085BDAD
:10067000EEE6F0E0808181608083E1E8F0E01082C6
:10068000808182608083808181608083E0E8F0E007
:10069000808181608083E1EBF0E0808184608083F1
:1006A000E0EBF0E0808181608083EAE7F0E0808128
:1006B0008460808380818260808380818160808388
:1006C0008081806880831092C10008958E3008F088
:1006D0008E502091040190E4299F9001112487708D
:1006E000822B80937C0080917A00806480937A00D2
:1006F00080917A0086FDFCCF8091780090917900FE
:100700000895833081F028F4813099F08230A9F087
:1007100008958730A9F08830C9F08430B1F4809111
:1007200080008F7D03C0809180008F778093800050
:10073000089584B58F7784BD089584B58F7DFBCFF0
:100740008091B0008F778093B00008958091B000C1
:100750008F7DF9CFCF93DF9390E0FC01E458FF4FFA
:10076000249180579F4FFC0184918823C9F090E029
:10077000880F991FFC01E255FF4FA591B491FC0130
:10078000EC55FF4FC591D49161110DC09FB7F894FE
:100790008C91209582238C938881282328839FBF66
:1007A000DF91CF910895623051F49FB7F8943C9156
:1007B000822F809583238C93E8812E2BEFCF8FB7E8
:1007C000F894EC912E2B2C938FBFEACF1F93CF93ED
:1007D000DF93282F30E0F901E859FF4F8491F901A8
:1007E000E458FF4FD491F901E057FF4FC491CC2357
:1007F000A1F0162F811185DFEC2FF0E0EE0FFF1F27
:10080000EC55FF4FA591B4918FB7F894EC9111116D
:1008100008C0D095DE23DC938FBFDF91CF911F916D
:100820000895DE2BF8CFFC01918D228D892F90E069
:10083000805C9F4F821B91098F7399270895FC015B
:10084000918D828D981731F0828DE80FF11D858D85
:1008500090E008958FEF9FEF0895FC01918D828DB8
:10086000981761F0A28DAE0FBF2FB11D5D968C91D0
:10087000928D9F5F9F73928F90E008958FEF9FEF0F
:100880000895FC01538D448D252F30E0842F90E096
:10089000821B930B541710F0CF960895019708957B
:1008A000FC01A48DA80FB92FB11DA35ABF4F2C91E5
:1008B000848D90E001968F739927848FA689B789DC
:1008C0002C93A089B1898C91837080648C93938DD3
:1008D000848D981306C00288F389E02D80818F7D76
:1008E00080830895CF93DF93EC01888D8823B1F046
:1008F000AA89BB89E889F9898C9185FD03C080812B
:1009000086FD0CC00FB607FCF7CF8C9185FFF2CFA8
:10091000808185FFEDCFCE01C3DFEACFDF91CF919C
:100920000895EF92FF920F931F93CF93DF93EC0103
:1009300081E0888F9B8D8C8D98131AC0E889F98986
:10094000808185FF15C09FB7F894EE89FF89608389
:10095000E889F98980818370806480839FBF81E00A
:1009600090E0DF91CF911F910F91FF90EF9008954C
:10097000F62E0B8D10E00F5F1F4F0F731127E02E27
:100980008C8D8E110BC00FB607FCFACFE889F98960
:10099000808185FFF5CFCE0183DFF2CFEB8DEC0FA9
:1009A000FD2FF11DE35AFF4FF0829FB7F8940B8F94
:1009B000EA89FB8980818062D0CFCF92DF92EF926B
:1009C000FF921F93CF93DF93EC016A017B01122FFB
:1009D000E889F98982E08083C11481EED806E104B8
:1009E000F10499F060E079E08DE390E0A7019601D1
:1009F000F5D0215031094109510956954795379550
:100A00002795211580E1380790F0E889F98910824F
:100A100060E874E88EE190E0A7019601DFD02150F4
:100A20003109410951095695479537952795EC8528
:100A3000FD853083EE85FF852083188EEC89FD8946
:100A40001083EA89FB89808180618083EA89FB8940
:100A5000808188608083EA89FB89808180688083C7
:100A6000EA89FB8980818F7D8083DF91CF911F91FF
:100A7000FF90EF90DF90CF9008951F920F920FB6E6
:100A80000F9211242F938F939F93EF93FF93E091F5
:100A90004201F09143018081E0914801F0914901C8
:100AA00082FD1BC0908180914B018F5F8F732091DD
:100AB0004C01821741F0E0914B01F0E0EE5CFE4FFB
:100AC000958F80934B01FF91EF919F918F912F9183
:100AD0000F900FBE0F901F9018958081F4CF1F923A
:100AE0000F920FB60F9211242F933F934F935F9362
:100AF0006F937F938F939F93AF93BF93EF93FF93E6
:100B000082E391E0CDDEFF91EF91BF91AF919F9194
:100B10008F917F916F915F914F913F912F910F90A6
:100B20000FBE0F901F901895E2E3F1E0138212823E
:100B300088EE93E0A0E0B0E084839583A683B7833A
:100B40008BE091E09183808385EC90E095878487AA
:100B500084EC90E09787868780EC90E0918B808B87
:100B600081EC90E0938B828B82EC90E0958B848B70
:100B700086EC90E0978B868B118E128E138E148EDE
:100B80000895AF92BF92CF92DF92EF92FF920F93B0
:100B90001F93CF93DF936C017B018B01040F151F13
:100BA000EB015E01AE18BF08C017D10759F069917B
:100BB000D601ED91FC910190F081E02DC6010995DF
:100BC000892B79F7C501DF91CF911F910F91FF908C
:100BD000EF90DF90CF90BF90AF900895A1E21A2ED2
:100BE000AA1BBB1BFD010DC0AA1FBB1FEE1FFF1FD1
:100BF000A217B307E407F50720F0A21BB30BE40B21
:100C0000F50B661F771F881F991F1A9469F7609567
:100C10007095809590959B01AC01BD01CF01089521
:100C2000EE0FFF1F0590F491E02D0994F894FFCF8B
:100C30000000704201E301000000009104C1054181
:0A0C400004720413042D041F0400C5
:00000001FF
